{
  "contractName": "StakingToken",
  "abi": [
    {
      "anonymous": false,
      "inputs": [
        {
          "indexed": true,
          "internalType": "address",
          "name": "owner",
          "type": "address"
        },
        {
          "indexed": true,
          "internalType": "address",
          "name": "spender",
          "type": "address"
        },
        {
          "indexed": false,
          "internalType": "uint256",
          "name": "value",
          "type": "uint256"
        }
      ],
      "name": "Approval",
      "type": "event"
    },
    {
      "anonymous": false,
      "inputs": [
        {
          "indexed": true,
          "internalType": "address",
          "name": "from",
          "type": "address"
        },
        {
          "indexed": true,
          "internalType": "address",
          "name": "to",
          "type": "address"
        },
        {
          "indexed": false,
          "internalType": "uint256",
          "name": "value",
          "type": "uint256"
        }
      ],
      "name": "Transfer",
      "type": "event"
    },
    {
      "inputs": [
        {
          "internalType": "address",
          "name": "owner",
          "type": "address"
        },
        {
          "internalType": "address",
          "name": "spender",
          "type": "address"
        }
      ],
      "name": "allowance",
      "outputs": [
        {
          "internalType": "uint256",
          "name": "",
          "type": "uint256"
        }
      ],
      "stateMutability": "view",
      "type": "function",
      "constant": true
    },
    {
      "inputs": [
        {
          "internalType": "address",
          "name": "spender",
          "type": "address"
        },
        {
          "internalType": "uint256",
          "name": "amount",
          "type": "uint256"
        }
      ],
      "name": "approve",
      "outputs": [
        {
          "internalType": "bool",
          "name": "",
          "type": "bool"
        }
      ],
      "stateMutability": "nonpayable",
      "type": "function"
    },
    {
      "inputs": [
        {
          "internalType": "address",
          "name": "account",
          "type": "address"
        }
      ],
      "name": "balanceOf",
      "outputs": [
        {
          "internalType": "uint256",
          "name": "",
          "type": "uint256"
        }
      ],
      "stateMutability": "view",
      "type": "function",
      "constant": true
    },
    {
      "inputs": [],
      "name": "decimals",
      "outputs": [
        {
          "internalType": "uint8",
          "name": "",
          "type": "uint8"
        }
      ],
      "stateMutability": "view",
      "type": "function",
      "constant": true
    },
    {
      "inputs": [
        {
          "internalType": "address",
          "name": "spender",
          "type": "address"
        },
        {
          "internalType": "uint256",
          "name": "subtractedValue",
          "type": "uint256"
        }
      ],
      "name": "decreaseAllowance",
      "outputs": [
        {
          "internalType": "bool",
          "name": "",
          "type": "bool"
        }
      ],
      "stateMutability": "nonpayable",
      "type": "function"
    },
    {
      "inputs": [
        {
          "internalType": "address",
          "name": "spender",
          "type": "address"
        },
        {
          "internalType": "uint256",
          "name": "addedValue",
          "type": "uint256"
        }
      ],
      "name": "increaseAllowance",
      "outputs": [
        {
          "internalType": "bool",
          "name": "",
          "type": "bool"
        }
      ],
      "stateMutability": "nonpayable",
      "type": "function"
    },
    {
      "inputs": [],
      "name": "name",
      "outputs": [
        {
          "internalType": "string",
          "name": "",
          "type": "string"
        }
      ],
      "stateMutability": "view",
      "type": "function",
      "constant": true
    },
    {
      "inputs": [],
      "name": "symbol",
      "outputs": [
        {
          "internalType": "string",
          "name": "",
          "type": "string"
        }
      ],
      "stateMutability": "view",
      "type": "function",
      "constant": true
    },
    {
      "inputs": [],
      "name": "totalSupply",
      "outputs": [
        {
          "internalType": "uint256",
          "name": "",
          "type": "uint256"
        }
      ],
      "stateMutability": "view",
      "type": "function",
      "constant": true
    },
    {
      "inputs": [
        {
          "internalType": "address",
          "name": "recipient",
          "type": "address"
        },
        {
          "internalType": "uint256",
          "name": "amount",
          "type": "uint256"
        }
      ],
      "name": "transfer",
      "outputs": [
        {
          "internalType": "bool",
          "name": "",
          "type": "bool"
        }
      ],
      "stateMutability": "nonpayable",
      "type": "function"
    },
    {
      "inputs": [
        {
          "internalType": "address",
          "name": "sender",
          "type": "address"
        },
        {
          "internalType": "address",
          "name": "recipient",
          "type": "address"
        },
        {
          "internalType": "uint256",
          "name": "amount",
          "type": "uint256"
        }
      ],
      "name": "transferFrom",
      "outputs": [
        {
          "internalType": "bool",
          "name": "",
          "type": "bool"
        }
      ],
      "stateMutability": "nonpayable",
      "type": "function"
    },
    {
      "inputs": [
        {
          "internalType": "string",
          "name": "_name",
          "type": "string"
        },
        {
          "internalType": "string",
          "name": "_symbol",
          "type": "string"
        },
        {
          "internalType": "uint256",
          "name": "_totalSupply",
          "type": "uint256"
        }
      ],
      "name": "initialize",
      "outputs": [],
      "stateMutability": "nonpayable",
      "type": "function"
    },
    {
      "inputs": [
        {
          "internalType": "uint256",
          "name": "_rewardRate",
          "type": "uint256"
        }
      ],
      "name": "setRewardRate",
      "outputs": [],
      "stateMutability": "nonpayable",
      "type": "function"
    },
    {
      "inputs": [
        {
          "internalType": "uint256",
          "name": "_stakeId",
          "type": "uint256"
        }
      ],
      "name": "checkDuration",
      "outputs": [
        {
          "internalType": "uint256",
          "name": "",
          "type": "uint256"
        }
      ],
      "stateMutability": "view",
      "type": "function",
      "constant": true
    },
    {
      "inputs": [
        {
          "internalType": "uint256",
          "name": "_stake",
          "type": "uint256"
        },
        {
          "internalType": "uint256",
          "name": "_duration",
          "type": "uint256"
        },
        {
          "internalType": "string",
          "name": "_itemName",
          "type": "string"
        }
      ],
      "name": "createStake",
      "outputs": [],
      "stateMutability": "nonpayable",
      "type": "function"
    },
    {
      "inputs": [
        {
          "internalType": "address",
          "name": "_staker",
          "type": "address"
        }
      ],
      "name": "fetchStakes",
      "outputs": [
        {
          "components": [
            {
              "internalType": "uint256",
              "name": "stakeId",
              "type": "uint256"
            },
            {
              "internalType": "uint256",
              "name": "stakeStartTime",
              "type": "uint256"
            },
            {
              "internalType": "uint256",
              "name": "stakeEndTime",
              "type": "uint256"
            },
            {
              "internalType": "uint256",
              "name": "amount",
              "type": "uint256"
            },
            {
              "internalType": "uint256",
              "name": "duration",
              "type": "uint256"
            },
            {
              "internalType": "string",
              "name": "itemName",
              "type": "string"
            }
          ],
          "internalType": "struct StakingToken.Stake[]",
          "name": "",
          "type": "tuple[]"
        }
      ],
      "stateMutability": "view",
      "type": "function",
      "constant": true
    },
    {
      "inputs": [
        {
          "internalType": "address",
          "name": "_staker",
          "type": "address"
        }
      ],
      "name": "fetchStakerDetails",
      "outputs": [
        {
          "components": [
            {
              "internalType": "uint256",
              "name": "totalInvested",
              "type": "uint256"
            },
            {
              "internalType": "uint256",
              "name": "totalRewards",
              "type": "uint256"
            },
            {
              "internalType": "uint256",
              "name": "totalCreatedStakes",
              "type": "uint256"
            }
          ],
          "internalType": "struct StakingToken.Child",
          "name": "",
          "type": "tuple"
        }
      ],
      "stateMutability": "view",
      "type": "function",
      "constant": true
    }
  ],
  "bytecode": "0x608060405234801561001057600080fd5b50612945806100206000396000f3fe608060405234801561001057600080fd5b506004361061010b5760003560e01c806359185b07116100a2578063a457c2d711610071578063a457c2d7146102e0578063a9059cbb14610310578063b119490e14610340578063dd62ed3e1461035c578063e14525741461038c5761010b565b806359185b071461025a57806370a082311461027657806395d89b41146102a65780639e447fc6146102c45761010b565b806323b872dd116100de57806323b872dd146101ac578063313ce567146101dc57806339509351146101fa57806340bad2ee1461022a5761010b565b806306fdde0314610110578063095ea7b31461012e57806318160ddd1461015e578063205a09031461017c575b600080fd5b6101186103bc565b60405161012591906123d3565b60405180910390f35b61014860048036038101906101439190611c53565b61044e565b60405161015591906123b8565b60405180910390f35b61016661046c565b6040516101739190612550565b60405180910390f35b61019660048036038101906101919190611b9f565b610476565b6040516101a39190612535565b60405180910390f35b6101c660048036038101906101c19190611c04565b6104ed565b6040516101d391906123b8565b60405180910390f35b6101e46105ee565b6040516101f1919061256b565b60405180910390f35b610214600480360381019061020f9190611c53565b6105f7565b60405161022191906123b8565b60405180910390f35b610244600480360381019061023f9190611d0e565b6106a3565b6040516102519190612550565b60405180910390f35b610274600480360381019061026f9190611d37565b610732565b005b610290600480360381019061028b9190611b9f565b610aa6565b60405161029d9190612550565b60405180910390f35b6102ae610aef565b6040516102bb91906123d3565b60405180910390f35b6102de60048036038101906102d99190611d0e565b610b81565b005b6102fa60048036038101906102f59190611c53565b610c22565b60405161030791906123b8565b60405180910390f35b61032a60048036038101906103259190611c53565b610d16565b60405161033791906123b8565b60405180910390f35b61035a60048036038101906103559190611c8f565b610d34565b005b61037660048036038101906103719190611bc8565b610e81565b6040516103839190612550565b60405180910390f35b6103a660048036038101906103a19190611b9f565b610f08565b6040516103b39190612396565b60405180910390f35b6060603680546103cb906127c8565b80601f01602080910402602001604051908101604052809291908181526020018280546103f7906127c8565b80156104445780601f1061041957610100808354040283529160200191610444565b820191906000526020600020905b81548152906001019060200180831161042757829003601f168201915b5050505050905090565b600061046261045b611167565b848461116f565b6001905092915050565b6000603554905090565b61047e611a13565b606860008373ffffffffffffffffffffffffffffffffffffffff1673ffffffffffffffffffffffffffffffffffffffff16815260200190815260200160002060405180606001604052908160008201548152602001600182015481526020016002820154815250509050919050565b60006104fa84848461133a565b6000603460008673ffffffffffffffffffffffffffffffffffffffff1673ffffffffffffffffffffffffffffffffffffffff1681526020019081526020016000206000610545611167565b73ffffffffffffffffffffffffffffffffffffffff1673ffffffffffffffffffffffffffffffffffffffff168152602001908152602001600020549050828110156105c5576040517f08c379a00000000000000000000000000000000000000000000000000000000081526004016105bc90612475565b60405180910390fd5b6105e2856105d1611167565b85846105dd91906126fd565b61116f565b60019150509392505050565b60006012905090565b6000610699610604611167565b848460346000610612611167565b73ffffffffffffffffffffffffffffffffffffffff1673ffffffffffffffffffffffffffffffffffffffff16815260200190815260200160002060008873ffffffffffffffffffffffffffffffffffffffff1673ffffffffffffffffffffffffffffffffffffffff16815260200190815260200160002054610694919061264d565b61116f565b6001905092915050565b600080606960006106b2611167565b73ffffffffffffffffffffffffffffffffffffffff1673ffffffffffffffffffffffffffffffffffffffff16815260200190815260200160002060008481526020019081526020016000206002015490506000428261071191906126fd565b905060008110156107275760009250505061072d565b80925050505b919050565b7342bb40bf79730451b11f6de1cba222f17b87afd773ffffffffffffffffffffffffffffffffffffffff166323b872dd61076a611167565b739d324d73a6d43a6c66e080e65bf705f4e078495e866040518463ffffffff1660e01b815260040161079e9392919061235f565b600060405180830381600087803b1580156107b857600080fd5b505af11580156107cc573d6000803e3d6000fd5b5050505060008060008414156107f65742620d2f006107eb919061264d565b915060019050610830565b6001841415610819574262093a8061080e919061264d565b91506007905061082f565b4262b89200610828919061264d565b9150600e90505b5b600061083c86836115bc565b905061084f610849611167565b826115ea565b806068600061085c611167565b73ffffffffffffffffffffffffffffffffffffffff1673ffffffffffffffffffffffffffffffffffffffff16815260200190815260200160002060010160008282546108a8919061264d565b9250508190555060006001606860006108bf611167565b73ffffffffffffffffffffffffffffffffffffffff1673ffffffffffffffffffffffffffffffffffffffff168152602001908152602001600020600201600082825461090b919061264d565b92505081905590508060686000610920611167565b73ffffffffffffffffffffffffffffffffffffffff1673ffffffffffffffffffffffffffffffffffffffff1681526020019081526020016000206002018190555060006040518060c00160405280838152602001428152602001868152602001898152602001858152602001878152509050806069600061099f611167565b73ffffffffffffffffffffffffffffffffffffffff1673ffffffffffffffffffffffffffffffffffffffff1681526020019081526020016000206000848152602001908152602001600020600082015181600001556020820151816001015560408201518160020155606082015181600301556080820151816004015560a0820151816005019080519060200190610a38929190611a34565b509050508760686000610a49611167565b73ffffffffffffffffffffffffffffffffffffffff1673ffffffffffffffffffffffffffffffffffffffff1681526020019081526020016000206000016000828254610a95919061264d565b925050819055505050505050505050565b6000603360008373ffffffffffffffffffffffffffffffffffffffff1673ffffffffffffffffffffffffffffffffffffffff168152602001908152602001600020549050919050565b606060378054610afe906127c8565b80601f0160208091040260200160405190810160405280929190818152602001828054610b2a906127c8565b8015610b775780601f10610b4c57610100808354040283529160200191610b77565b820191906000526020600020905b815481529060010190602001808311610b5a57829003601f168201915b5050505050905090565b610b89611167565b73ffffffffffffffffffffffffffffffffffffffff16606660009054906101000a900473ffffffffffffffffffffffffffffffffffffffff1673ffffffffffffffffffffffffffffffffffffffff1614610c18576040517f08c379a0000000000000000000000000000000000000000000000000000000008152600401610c0f90612495565b60405180910390fd5b8060678190555050565b60008060346000610c31611167565b73ffffffffffffffffffffffffffffffffffffffff1673ffffffffffffffffffffffffffffffffffffffff16815260200190815260200160002060008573ffffffffffffffffffffffffffffffffffffffff1673ffffffffffffffffffffffffffffffffffffffff16815260200190815260200160002054905082811015610cee576040517f08c379a0000000000000000000000000000000000000000000000000000000008152600401610ce5906124f5565b60405180910390fd5b610d0b610cf9611167565b858584610d0691906126fd565b61116f565b600191505092915050565b6000610d2a610d23611167565b848461133a565b6001905092915050565b600060019054906101000a900460ff1680610d5a575060008054906101000a900460ff16155b610d99576040517f08c379a0000000000000000000000000000000000000000000000000000000008152600401610d9090612455565b60405180910390fd5b60008060019054906101000a900460ff161590508015610de9576001600060016101000a81548160ff02191690831515021790555060016000806101000a81548160ff0219169083151502179055505b610df3848461173f565b610dfb611167565b606660006101000a81548173ffffffffffffffffffffffffffffffffffffffff021916908373ffffffffffffffffffffffffffffffffffffffff16021790555066b1a2bc2ec50000606781905550610e5a610e54611167565b836115ea565b8015610e7b5760008060016101000a81548160ff0219169083151502179055505b50505050565b6000603460008473ffffffffffffffffffffffffffffffffffffffff1673ffffffffffffffffffffffffffffffffffffffff16815260200190815260200160002060008373ffffffffffffffffffffffffffffffffffffffff1673ffffffffffffffffffffffffffffffffffffffff16815260200190815260200160002054905092915050565b60606000606860008473ffffffffffffffffffffffffffffffffffffffff1673ffffffffffffffffffffffffffffffffffffffff16815260200190815260200160002060020154905060008167ffffffffffffffff811115610f93577f4e487b7100000000000000000000000000000000000000000000000000000000600052604160045260246000fd5b604051908082528060200260200182016040528015610fcc57816020015b610fb9611aba565b815260200190600190039081610fb15790505b50905060005b8281101561115c57606960008673ffffffffffffffffffffffffffffffffffffffff1673ffffffffffffffffffffffffffffffffffffffff1681526020019081526020016000206000600183611028919061264d565b81526020019081526020016000206040518060c00160405290816000820154815260200160018201548152602001600282015481526020016003820154815260200160048201548152602001600582018054611083906127c8565b80601f01602080910402602001604051908101604052809291908181526020018280546110af906127c8565b80156110fc5780601f106110d1576101008083540402835291602001916110fc565b820191906000526020600020905b8154815290600101906020018083116110df57829003601f168201915b50505050508152505082828151811061113e577f4e487b7100000000000000000000000000000000000000000000000000000000600052603260045260246000fd5b60200260200101819052508080611154906127fa565b915050610fd2565b508092505050919050565b600033905090565b600073ffffffffffffffffffffffffffffffffffffffff168373ffffffffffffffffffffffffffffffffffffffff1614156111df576040517f08c379a00000000000000000000000000000000000000000000000000000000081526004016111d6906124d5565b60405180910390fd5b600073ffffffffffffffffffffffffffffffffffffffff168273ffffffffffffffffffffffffffffffffffffffff16141561124f576040517f08c379a000000000000000000000000000000000000000000000000000000000815260040161124690612415565b60405180910390fd5b80603460008573ffffffffffffffffffffffffffffffffffffffff1673ffffffffffffffffffffffffffffffffffffffff16815260200190815260200160002060008473ffffffffffffffffffffffffffffffffffffffff1673ffffffffffffffffffffffffffffffffffffffff168152602001908152602001600020819055508173ffffffffffffffffffffffffffffffffffffffff168373ffffffffffffffffffffffffffffffffffffffff167f8c5be1e5ebec7d5bd14f71427d1e84f3dd0314c0f7b2291e5b200ac8c7c3b9258360405161132d9190612550565b60405180910390a3505050565b600073ffffffffffffffffffffffffffffffffffffffff168373ffffffffffffffffffffffffffffffffffffffff1614156113aa576040517f08c379a00000000000000000000000000000000000000000000000000000000081526004016113a1906124b5565b60405180910390fd5b600073ffffffffffffffffffffffffffffffffffffffff168273ffffffffffffffffffffffffffffffffffffffff16141561141a576040517f08c379a0000000000000000000000000000000000000000000000000000000008152600401611411906123f5565b60405180910390fd5b61142583838361182c565b6000603360008573ffffffffffffffffffffffffffffffffffffffff1673ffffffffffffffffffffffffffffffffffffffff168152602001908152602001600020549050818110156114ac576040517f08c379a00000000000000000000000000000000000000000000000000000000081526004016114a390612435565b60405180910390fd5b81816114b891906126fd565b603360008673ffffffffffffffffffffffffffffffffffffffff1673ffffffffffffffffffffffffffffffffffffffff1681526020019081526020016000208190555081603360008573ffffffffffffffffffffffffffffffffffffffff1673ffffffffffffffffffffffffffffffffffffffff168152602001908152602001600020600082825461154a919061264d565b925050819055508273ffffffffffffffffffffffffffffffffffffffff168473ffffffffffffffffffffffffffffffffffffffff167fddf252ad1be2c89b69c2b068fc378daa952ba7f163c4a11628f55a4df523b3ef846040516115ae9190612550565b60405180910390a350505050565b600080606754846115cd91906126a3565b9050600083826115dd91906126a3565b9050809250505092915050565b600073ffffffffffffffffffffffffffffffffffffffff168273ffffffffffffffffffffffffffffffffffffffff16141561165a576040517f08c379a000000000000000000000000000000000000000000000000000000000815260040161165190612515565b60405180910390fd5b6116666000838361182c565b8060356000828254611678919061264d565b9250508190555080603360008473ffffffffffffffffffffffffffffffffffffffff1673ffffffffffffffffffffffffffffffffffffffff16815260200190815260200160002060008282546116ce919061264d565b925050819055508173ffffffffffffffffffffffffffffffffffffffff16600073ffffffffffffffffffffffffffffffffffffffff167fddf252ad1be2c89b69c2b068fc378daa952ba7f163c4a11628f55a4df523b3ef836040516117339190612550565b60405180910390a35050565b600060019054906101000a900460ff1680611765575060008054906101000a900460ff16155b6117a4576040517f08c379a000000000000000000000000000000000000000000000000000000000815260040161179b90612455565b60405180910390fd5b60008060019054906101000a900460ff1615905080156117f4576001600060016101000a81548160ff02191690831515021790555060016000806101000a81548160ff0219169083151502179055505b6117fc611831565b611806838361190a565b80156118275760008060016101000a81548160ff0219169083151502179055505b505050565b505050565b600060019054906101000a900460ff1680611857575060008054906101000a900460ff16155b611896576040517f08c379a000000000000000000000000000000000000000000000000000000000815260040161188d90612455565b60405180910390fd5b60008060019054906101000a900460ff1615905080156118e6576001600060016101000a81548160ff02191690831515021790555060016000806101000a81548160ff0219169083151502179055505b80156119075760008060016101000a81548160ff0219169083151502179055505b50565b600060019054906101000a900460ff1680611930575060008054906101000a900460ff16155b61196f576040517f08c379a000000000000000000000000000000000000000000000000000000000815260040161196690612455565b60405180910390fd5b60008060019054906101000a900460ff1615905080156119bf576001600060016101000a81548160ff02191690831515021790555060016000806101000a81548160ff0219169083151502179055505b82603690805190602001906119d5929190611a34565b5081603790805190602001906119ec929190611a34565b508015611a0e5760008060016101000a81548160ff0219169083151502179055505b505050565b60405180606001604052806000815260200160008152602001600081525090565b828054611a40906127c8565b90600052602060002090601f016020900481019282611a625760008555611aa9565b82601f10611a7b57805160ff1916838001178555611aa9565b82800160010185558215611aa9579182015b82811115611aa8578251825591602001919060010190611a8d565b5b509050611ab69190611af0565b5090565b6040518060c001604052806000815260200160008152602001600081526020016000815260200160008152602001606081525090565b5b80821115611b09576000816000905550600101611af1565b5090565b6000611b20611b1b846125b7565b612586565b905082815260208101848484011115611b3857600080fd5b611b43848285612786565b509392505050565b600081359050611b5a816128e1565b92915050565b600082601f830112611b7157600080fd5b8135611b81848260208601611b0d565b91505092915050565b600081359050611b99816128f8565b92915050565b600060208284031215611bb157600080fd5b6000611bbf84828501611b4b565b91505092915050565b60008060408385031215611bdb57600080fd5b6000611be985828601611b4b565b9250506020611bfa85828601611b4b565b9150509250929050565b600080600060608486031215611c1957600080fd5b6000611c2786828701611b4b565b9350506020611c3886828701611b4b565b9250506040611c4986828701611b8a565b9150509250925092565b60008060408385031215611c6657600080fd5b6000611c7485828601611b4b565b9250506020611c8585828601611b8a565b9150509250929050565b600080600060608486031215611ca457600080fd5b600084013567ffffffffffffffff811115611cbe57600080fd5b611cca86828701611b60565b935050602084013567ffffffffffffffff811115611ce757600080fd5b611cf386828701611b60565b9250506040611d0486828701611b8a565b9150509250925092565b600060208284031215611d2057600080fd5b6000611d2e84828501611b8a565b91505092915050565b600080600060608486031215611d4c57600080fd5b6000611d5a86828701611b8a565b9350506020611d6b86828701611b8a565b925050604084013567ffffffffffffffff811115611d8857600080fd5b611d9486828701611b60565b9150509250925092565b6000611daa83836122a9565b905092915050565b611dbb81612731565b82525050565b6000611dcc826125f7565b611dd6818561261a565b935083602082028501611de8856125e7565b8060005b85811015611e245784840389528151611e058582611d9e565b9450611e108361260d565b925060208a01995050600181019050611dec565b50829750879550505050505092915050565b611e3f81612743565b82525050565b6000611e5082612602565b611e5a818561262b565b9350611e6a818560208601612795565b611e73816128d0565b840191505092915050565b6000611e8982612602565b611e93818561263c565b9350611ea3818560208601612795565b611eac816128d0565b840191505092915050565b6000611ec460238361263c565b91507f45524332303a207472616e7366657220746f20746865207a65726f206164647260008301527f65737300000000000000000000000000000000000000000000000000000000006020830152604082019050919050565b6000611f2a60228361263c565b91507f45524332303a20617070726f766520746f20746865207a65726f20616464726560008301527f73730000000000000000000000000000000000000000000000000000000000006020830152604082019050919050565b6000611f9060268361263c565b91507f45524332303a207472616e7366657220616d6f756e742065786365656473206260008301527f616c616e636500000000000000000000000000000000000000000000000000006020830152604082019050919050565b6000611ff6602e8361263c565b91507f496e697469616c697a61626c653a20636f6e747261637420697320616c72656160008301527f647920696e697469616c697a65640000000000000000000000000000000000006020830152604082019050919050565b600061205c60288361263c565b91507f45524332303a207472616e7366657220616d6f756e742065786365656473206160008301527f6c6c6f77616e63650000000000000000000000000000000000000000000000006020830152604082019050919050565b60006120c260178361263c565b91507f63616c6c6572206973206e6f7420746865206f776e65720000000000000000006000830152602082019050919050565b600061210260258361263c565b91507f45524332303a207472616e736665722066726f6d20746865207a65726f20616460008301527f64726573730000000000000000000000000000000000000000000000000000006020830152604082019050919050565b600061216860248361263c565b91507f45524332303a20617070726f76652066726f6d20746865207a65726f2061646460008301527f72657373000000000000000000000000000000000000000000000000000000006020830152604082019050919050565b60006121ce60258361263c565b91507f45524332303a2064656372656173656420616c6c6f77616e63652062656c6f7760008301527f207a65726f0000000000000000000000000000000000000000000000000000006020830152604082019050919050565b6000612234601f8361263c565b91507f45524332303a206d696e7420746f20746865207a65726f2061646472657373006000830152602082019050919050565b60608201600082015161227d6000850182612332565b5060208201516122906020850182612332565b5060408201516122a36040850182612332565b50505050565b600060c0830160008301516122c16000860182612332565b5060208301516122d46020860182612332565b5060408301516122e76040860182612332565b5060608301516122fa6060860182612332565b50608083015161230d6080860182612332565b5060a083015184820360a08601526123258282611e45565b9150508091505092915050565b61233b8161276f565b82525050565b61234a8161276f565b82525050565b61235981612779565b82525050565b60006060820190506123746000830186611db2565b6123816020830185611db2565b61238e6040830184612341565b949350505050565b600060208201905081810360008301526123b08184611dc1565b905092915050565b60006020820190506123cd6000830184611e36565b92915050565b600060208201905081810360008301526123ed8184611e7e565b905092915050565b6000602082019050818103600083015261240e81611eb7565b9050919050565b6000602082019050818103600083015261242e81611f1d565b9050919050565b6000602082019050818103600083015261244e81611f83565b9050919050565b6000602082019050818103600083015261246e81611fe9565b9050919050565b6000602082019050818103600083015261248e8161204f565b9050919050565b600060208201905081810360008301526124ae816120b5565b9050919050565b600060208201905081810360008301526124ce816120f5565b9050919050565b600060208201905081810360008301526124ee8161215b565b9050919050565b6000602082019050818103600083015261250e816121c1565b9050919050565b6000602082019050818103600083015261252e81612227565b9050919050565b600060608201905061254a6000830184612267565b92915050565b60006020820190506125656000830184612341565b92915050565b60006020820190506125806000830184612350565b92915050565b6000604051905081810181811067ffffffffffffffff821117156125ad576125ac6128a1565b5b8060405250919050565b600067ffffffffffffffff8211156125d2576125d16128a1565b5b601f19601f8301169050602081019050919050565b6000819050602082019050919050565b600081519050919050565b600081519050919050565b6000602082019050919050565b600082825260208201905092915050565b600082825260208201905092915050565b600082825260208201905092915050565b60006126588261276f565b91506126638361276f565b9250827fffffffffffffffffffffffffffffffffffffffffffffffffffffffffffffffff0382111561269857612697612843565b5b828201905092915050565b60006126ae8261276f565b91506126b98361276f565b9250817fffffffffffffffffffffffffffffffffffffffffffffffffffffffffffffffff04831182151516156126f2576126f1612843565b5b828202905092915050565b60006127088261276f565b91506127138361276f565b92508282101561272657612725612843565b5b828203905092915050565b600061273c8261274f565b9050919050565b60008115159050919050565b600073ffffffffffffffffffffffffffffffffffffffff82169050919050565b6000819050919050565b600060ff82169050919050565b82818337600083830152505050565b60005b838110156127b3578082015181840152602081019050612798565b838111156127c2576000848401525b50505050565b600060028204905060018216806127e057607f821691505b602082108114156127f4576127f3612872565b5b50919050565b60006128058261276f565b91507fffffffffffffffffffffffffffffffffffffffffffffffffffffffffffffffff82141561283857612837612843565b5b600182019050919050565b7f4e487b7100000000000000000000000000000000000000000000000000000000600052601160045260246000fd5b7f4e487b7100000000000000000000000000000000000000000000000000000000600052602260045260246000fd5b7f4e487b7100000000000000000000000000000000000000000000000000000000600052604160045260246000fd5b6000601f19601f8301169050919050565b6128ea81612731565b81146128f557600080fd5b50565b6129018161276f565b811461290c57600080fd5b5056fea2646970667358221220e52e39826a4d5bfcaa1e3e89335fb9499bf8460dc01e40ec6f3043846a3945a764736f6c63430008000033",
  "immutableReferences": {},
  "source": "// SPDX-License-Identifier: MIT\npragma solidity ^0.8.0;\n\nimport \"@openzeppelin/contracts-upgradeable/token/ERC20/ERC20Upgradeable.sol\";\n\ninterface ISuperfluidToken {\n    function transferFrom(\n        address holder,\n        address recipient,\n        uint256 amount\n    ) external;\n}\n\n/**\n * @notice Implements a basic ERC20 staking token with incentive distribution.\n */\ncontract StakingToken is ERC20Upgradeable {\n    address[] internal stakeholders;\n    address private owner;\n    address constant DK_USDCX = 0x9D324D73a6d43A6c66e080E65bF705F4e078495E;\n    address constant USDCX_MUMBAI = 0x42bb40bF79730451B11f6De1CbA222F17b87Afd7;\n    uint256 private REWARD_RATE;\n    mapping(address => Child) private address_child;\n    mapping(address => mapping(uint256 => Stake)) child_stake;\n\n    struct Child {\n        uint256 totalInvested;\n        uint256 totalRewards;\n        uint256 totalCreatedStakes;\n    }\n    struct Stake {\n        uint256 stakeId;\n        uint256 stakeStartTime;\n        uint256 stakeEndTime;\n        uint256 amount;\n        uint256 duration;\n        string itemName;\n    }\n\n    function initialize(\n        string memory _name,\n        string memory _symbol,\n        uint256 _totalSupply\n    ) external initializer {\n        __ERC20_init(_name, _symbol);\n        owner = _msgSender();\n        REWARD_RATE = 0.05 ether;\n        _mint(_msgSender(), _totalSupply);\n    }\n\n    modifier onlyOwner() {\n        require(owner == _msgSender(), \"caller is not the owner\");\n        _;\n    }\n\n    function setRewardRate(uint256 _rewardRate) external onlyOwner {\n        REWARD_RATE = _rewardRate;\n    }\n\n    function checkDuration(uint256 _stakeId) external view returns (uint256) {\n        uint256 _stakeEndTime = child_stake[_msgSender()][_stakeId]\n            .stakeEndTime;\n        uint256 timeRemaining = _stakeEndTime - block.timestamp;\n        if (timeRemaining < 0) {\n            return 0;\n        } else {\n            return timeRemaining;\n        }\n    }\n\n    /**\n     * @notice A method for a stakeholder to create a stake.\n     * @param _stake The size of the stake to be created.\n     * @param _duration (enum value 0 = 1, 1 = 7, 2 = 14 days)\n     * @param _itemName The name of the item that the child is staking/saving for.\n     */\n    function createStake(\n        uint256 _stake,\n        uint256 _duration,\n        string memory _itemName\n    ) public {\n        // transfer funds to the USDCx contract\n        ISuperfluidToken(USDCX_MUMBAI).transferFrom(\n            _msgSender(),\n            DK_USDCX,\n            _stake\n        );\n        uint256 endTime;\n        uint256 requestedDuration;\n        if (_duration == 0) {\n            endTime = 864000 + block.timestamp;\n            requestedDuration = 1;\n        } else if (_duration == 1) {\n            endTime = 604800 + block.timestamp;\n            requestedDuration = 7;\n        } else {\n            endTime = 12096000 + block.timestamp;\n            requestedDuration = 14;\n        }\n        uint256 reward = calculateReward(_stake, requestedDuration);\n        _mint(_msgSender(), reward); // transferring Allocate tokens\n        // Update total rewards for the user\n        address_child[_msgSender()].totalRewards += reward;\n\n        uint256 newStakeId = address_child[_msgSender()]\n            .totalCreatedStakes += 1;\n        // Update total stakes created by the child\n        address_child[_msgSender()].totalCreatedStakes = newStakeId;\n        Stake memory _newStake = Stake({\n            stakeId: newStakeId,\n            stakeStartTime: block.timestamp,\n            stakeEndTime: endTime,\n            amount: _stake,\n            duration: requestedDuration,\n            itemName: _itemName\n        });\n\n        // Add the stake to the childs account\n        child_stake[_msgSender()][newStakeId] = _newStake;\n        // Update total invested by user\n        address_child[_msgSender()].totalInvested += _stake;\n    }\n\n    /**\n     * @notice - This function is used to determine if the user is a member of a family.\n     */\n    function fetchStakes(address _staker)\n        external\n        view\n        returns (Stake[] memory)\n    {\n        //determine how many stakes the user has\n        uint256 numOfStakes = address_child[_staker].totalCreatedStakes;\n        Stake[] memory stakes = new Stake[](numOfStakes);\n        for (uint256 i = 0; i < numOfStakes; i++) {\n            stakes[i] = child_stake[_staker][i + 1];\n        }\n        return stakes;\n    }\n\n    function fetchStakerDetails(address _staker)\n        external\n        view\n        returns (Child memory)\n    {\n        return address_child[_staker];\n    }\n\n    function calculateReward(uint256 _stake, uint256 requestedDuration)\n        private\n        view\n        returns (uint256)\n    {\n        uint256 rate = _stake * REWARD_RATE;\n        uint256 reward = rate * requestedDuration;\n        return reward;\n    }\n}\n",
  "sourcePath": "/Users/jasonschwarz/DefiKids/contracts/StakingToken.sol",
  "compiler": {
    "name": "solc",
    "version": "0.8.0+commit.c7dfd78e.Emscripten.clang"
  },
  "schemaVersion": "3.4.6",
  "updatedAt": "2022-03-23T18:58:59.686Z",
  "networkType": "ethereum",
  "devdoc": {
    "kind": "dev",
    "methods": {
      "allowance(address,address)": {
        "details": "See {IERC20-allowance}."
      },
      "approve(address,uint256)": {
        "details": "See {IERC20-approve}. Requirements: - `spender` cannot be the zero address."
      },
      "balanceOf(address)": {
        "details": "See {IERC20-balanceOf}."
      },
      "createStake(uint256,uint256,string)": {
        "params": {
          "_duration": "(enum value 0 = 1, 1 = 7, 2 = 14 days)",
          "_itemName": "The name of the item that the child is staking/saving for.",
          "_stake": "The size of the stake to be created."
        }
      },
      "decimals()": {
        "details": "Returns the number of decimals used to get its user representation. For example, if `decimals` equals `2`, a balance of `505` tokens should be displayed to a user as `5,05` (`505 / 10 ** 2`). Tokens usually opt for a value of 18, imitating the relationship between Ether and Wei. This is the value {ERC20} uses, unless this function is overridden; NOTE: This information is only used for _display_ purposes: it in no way affects any of the arithmetic of the contract, including {IERC20-balanceOf} and {IERC20-transfer}."
      },
      "decreaseAllowance(address,uint256)": {
        "details": "Atomically decreases the allowance granted to `spender` by the caller. This is an alternative to {approve} that can be used as a mitigation for problems described in {IERC20-approve}. Emits an {Approval} event indicating the updated allowance. Requirements: - `spender` cannot be the zero address. - `spender` must have allowance for the caller of at least `subtractedValue`."
      },
      "increaseAllowance(address,uint256)": {
        "details": "Atomically increases the allowance granted to `spender` by the caller. This is an alternative to {approve} that can be used as a mitigation for problems described in {IERC20-approve}. Emits an {Approval} event indicating the updated allowance. Requirements: - `spender` cannot be the zero address."
      },
      "name()": {
        "details": "Returns the name of the token."
      },
      "symbol()": {
        "details": "Returns the symbol of the token, usually a shorter version of the name."
      },
      "totalSupply()": {
        "details": "See {IERC20-totalSupply}."
      },
      "transfer(address,uint256)": {
        "details": "See {IERC20-transfer}. Requirements: - `recipient` cannot be the zero address. - the caller must have a balance of at least `amount`."
      },
      "transferFrom(address,address,uint256)": {
        "details": "See {IERC20-transferFrom}. Emits an {Approval} event indicating the updated allowance. This is not required by the EIP. See the note at the beginning of {ERC20}. Requirements: - `sender` and `recipient` cannot be the zero address. - `sender` must have a balance of at least `amount`. - the caller must have allowance for ``sender``'s tokens of at least `amount`."
      }
    },
    "version": 1
  },
  "userdoc": {
    "kind": "user",
    "methods": {
      "createStake(uint256,uint256,string)": {
        "notice": "A method for a stakeholder to create a stake."
      },
      "fetchStakes(address)": {
        "notice": "- This function is used to determine if the user is a member of a family."
      }
    },
    "notice": "Implements a basic ERC20 staking token with incentive distribution.",
    "version": 1
  }
}