{
  "_format": "hh-sol-artifact-1",
  "contractName": "Host",
  "sourceName": "src/Host.sol",
  "abi": [
    {
      "inputs": [],
      "name": "AlreadyRegistered",
      "type": "error"
    },
    {
      "inputs": [],
      "name": "FamilyIdExists",
      "type": "error"
    },
    {
      "inputs": [],
      "name": "MaxParentIdExceeded",
      "type": "error"
    },
    {
      "inputs": [],
      "name": "NotFamilyMember",
      "type": "error"
    },
    {
      "inputs": [],
      "name": "NotRegistered",
      "type": "error"
    },
    {
      "inputs": [],
      "name": "NotValidUserType",
      "type": "error"
    },
    {
      "inputs": [],
      "name": "OwnerOnly",
      "type": "error"
    },
    {
      "inputs": [],
      "name": "ParentOnly",
      "type": "error"
    },
    {
      "inputs": [
        {
          "internalType": "bytes32",
          "name": "_familyId",
          "type": "bytes32"
        },
        {
          "internalType": "string",
          "name": "_username",
          "type": "string"
        },
        {
          "internalType": "string",
          "name": "_avatarURI",
          "type": "string"
        },
        {
          "internalType": "address",
          "name": "_child",
          "type": "address"
        },
        {
          "internalType": "bool",
          "name": "_sandboxMode",
          "type": "bool"
        }
      ],
      "name": "addChild",
      "outputs": [],
      "stateMutability": "nonpayable",
      "type": "function"
    },
    {
      "inputs": [
        {
          "internalType": "address",
          "name": "_child",
          "type": "address"
        },
        {
          "internalType": "bytes32",
          "name": "_familyId",
          "type": "bytes32"
        }
      ],
      "name": "fetchChild",
      "outputs": [
        {
          "components": [
            {
              "internalType": "string",
              "name": "username",
              "type": "string"
            },
            {
              "internalType": "string",
              "name": "avatarURI",
              "type": "string"
            },
            {
              "internalType": "bytes32",
              "name": "familyId",
              "type": "bytes32"
            },
            {
              "internalType": "uint256",
              "name": "memberSince",
              "type": "uint256"
            },
            {
              "internalType": "address",
              "name": "wallet",
              "type": "address"
            },
            {
              "internalType": "bool",
              "name": "sandboxMode",
              "type": "bool"
            }
          ],
          "internalType": "struct Host.Child",
          "name": "fetchedChild",
          "type": "tuple"
        }
      ],
      "stateMutability": "view",
      "type": "function"
    },
    {
      "inputs": [
        {
          "internalType": "bytes32",
          "name": "_familyId",
          "type": "bytes32"
        }
      ],
      "name": "fetchChildren",
      "outputs": [
        {
          "components": [
            {
              "internalType": "string",
              "name": "username",
              "type": "string"
            },
            {
              "internalType": "string",
              "name": "avatarURI",
              "type": "string"
            },
            {
              "internalType": "bytes32",
              "name": "familyId",
              "type": "bytes32"
            },
            {
              "internalType": "uint256",
              "name": "memberSince",
              "type": "uint256"
            },
            {
              "internalType": "address",
              "name": "wallet",
              "type": "address"
            },
            {
              "internalType": "bool",
              "name": "sandboxMode",
              "type": "bool"
            }
          ],
          "internalType": "struct Host.Child[]",
          "name": "",
          "type": "tuple[]"
        }
      ],
      "stateMutability": "view",
      "type": "function"
    },
    {
      "inputs": [
        {
          "internalType": "address",
          "name": "_owner",
          "type": "address"
        }
      ],
      "name": "getFamilyByOwner",
      "outputs": [
        {
          "components": [
            {
              "internalType": "bytes32",
              "name": "familyId",
              "type": "bytes32"
            },
            {
              "internalType": "uint256",
              "name": "memberSince",
              "type": "uint256"
            },
            {
              "internalType": "string",
              "name": "avatarURI",
              "type": "string"
            },
            {
              "internalType": "string",
              "name": "username",
              "type": "string"
            },
            {
              "internalType": "address payable",
              "name": "owner",
              "type": "address"
            },
            {
              "internalType": "address[]",
              "name": "children",
              "type": "address[]"
            }
          ],
          "internalType": "struct Host.Family",
          "name": "",
          "type": "tuple"
        }
      ],
      "stateMutability": "view",
      "type": "function"
    },
    {
      "inputs": [
        {
          "internalType": "address",
          "name": "_owner",
          "type": "address"
        }
      ],
      "name": "getFamilyIdByOwner",
      "outputs": [
        {
          "internalType": "bytes32",
          "name": "",
          "type": "bytes32"
        }
      ],
      "stateMutability": "view",
      "type": "function"
    },
    {
      "inputs": [
        {
          "internalType": "address",
          "name": "_user",
          "type": "address"
        }
      ],
      "name": "getUserType",
      "outputs": [
        {
          "internalType": "uint24",
          "name": "",
          "type": "uint24"
        }
      ],
      "stateMutability": "view",
      "type": "function"
    },
    {
      "inputs": [
        {
          "internalType": "address",
          "name": "_owner",
          "type": "address"
        },
        {
          "internalType": "string",
          "name": "_id",
          "type": "string"
        }
      ],
      "name": "hashFamilyId",
      "outputs": [
        {
          "internalType": "bytes32",
          "name": "",
          "type": "bytes32"
        }
      ],
      "stateMutability": "pure",
      "type": "function"
    },
    {
      "inputs": [
        {
          "internalType": "bytes32",
          "name": "_familyId",
          "type": "bytes32"
        },
        {
          "internalType": "string",
          "name": "_avatarURI",
          "type": "string"
        },
        {
          "internalType": "string",
          "name": "_username",
          "type": "string"
        }
      ],
      "name": "registerParent",
      "outputs": [],
      "stateMutability": "nonpayable",
      "type": "function"
    },
    {
      "inputs": [
        {
          "internalType": "address",
          "name": "_child",
          "type": "address"
        },
        {
          "internalType": "bytes32",
          "name": "_familyId",
          "type": "bytes32"
        }
      ],
      "name": "toggleSandbox",
      "outputs": [],
      "stateMutability": "nonpayable",
      "type": "function"
    },
    {
      "inputs": [
        {
          "internalType": "string",
          "name": "_avatarURI",
          "type": "string"
        }
      ],
      "name": "updateAvatarURI",
      "outputs": [],
      "stateMutability": "nonpayable",
      "type": "function"
    },
    {
      "inputs": [
        {
          "internalType": "bytes32",
          "name": "_familyId",
          "type": "bytes32"
        },
        {
          "internalType": "address",
          "name": "_child",
          "type": "address"
        },
        {
          "internalType": "string",
          "name": "_avatarURI",
          "type": "string"
        }
      ],
      "name": "updateChildAvatarURI",
      "outputs": [],
      "stateMutability": "nonpayable",
      "type": "function"
    },
    {
      "inputs": [
        {
          "internalType": "bytes32",
          "name": "_familyId",
          "type": "bytes32"
        },
        {
          "internalType": "address",
          "name": "_child",
          "type": "address"
        },
        {
          "internalType": "string",
          "name": "_username",
          "type": "string"
        }
      ],
      "name": "updateChildUsername",
      "outputs": [],
      "stateMutability": "nonpayable",
      "type": "function"
    },
    {
      "inputs": [
        {
          "internalType": "address",
          "name": "_owner",
          "type": "address"
        },
        {
          "internalType": "bytes32",
          "name": "_familyId",
          "type": "bytes32"
        },
        {
          "internalType": "bytes32",
          "name": "_updatedFamilyId",
          "type": "bytes32"
        }
      ],
      "name": "updateFamilyId",
      "outputs": [],
      "stateMutability": "nonpayable",
      "type": "function"
    },
    {
      "inputs": [
        {
          "internalType": "string",
          "name": "_username",
          "type": "string"
        }
      ],
      "name": "updateUsername",
      "outputs": [],
      "stateMutability": "nonpayable",
      "type": "function"
    }
  ],
  "bytecode": "0x608060405234801561001057600080fd5b5061231c806100206000396000f3fe608060405234801561001057600080fd5b50600436106100ea5760003560e01c8063a337ead71161008c578063d28c8e9111610066578063d28c8e9114610218578063d5e988361461022b578063eeba6c221461023e578063ff3603b81461025157600080fd5b8063a337ead7146101c5578063b88a1697146101e5578063c96cea701461020557600080fd5b80631f2a02c4116100c85780631f2a02c41461013d5780638b3f863f1461015d5780638b741fe41461019f5780639f448d16146101b257600080fd5b806305420641146100ef57806315383ad3146101155780631bf802021461012a575b600080fd5b6101026100fd366004611be4565b610264565b6040519081526020015b60405180910390f35b610128610123366004611c32565b610297565b005b610128610138366004611cca565b6104b7565b61015061014b366004611d21565b6108dd565b60405161010c9190611e03565b61018b61016b366004611e65565b6001600160a01b031660009081526003602052604090205462ffffff1690565b60405162ffffff909116815260200161010c565b6101286101ad366004611e87565b610c0b565b6101286101c0366004611eba565b610e61565b6101d86101d3366004611f1d565b611056565b60405161010c9190611f47565b6101f86101f3366004611e65565b611257565b60405161010c9190611f5a565b610128610213366004612010565b61149a565b610102610226366004611e65565b6114ef565b610128610239366004611f1d565b611540565b61012861024c366004611cca565b611607565b61012861025f366004612010565b611a22565b6000828260405160200161027992919061204d565b60405160208183030381529060405280519060200120905092915050565b3360009081526003602052604090205462ffffff166001146102cc5760405163a0807af760e01b815260040160405180910390fd5b6001600160a01b0382166000908152600360205260409020548590839062ffffff1660018114801561031a57506001600160a01b038281166000908152600160205260409020600401541633145b1561033857604051630ea075bf60e21b815260040160405180910390fd5b62ffffff81166002148015610374575060008381526004602081815260408084206001600160a01b038088168087529190935293209091015416145b1561039257604051630ea075bf60e21b815260040160405180910390fd5b6040805160c08101825288815260208082018990528183018b90524260608301526001600160a01b0388166080830181905287151560a084015260008c815260048352848120918152915291909120815182919081906103f2908261210e565b5060208201516001820190610407908261210e565b50604082810151600280840191909155606084015160038085019190915560808501516004909401805460a0909601511515600160a01b026001600160a81b03199096166001600160a01b0395861617959095179094559890911660008181526020938452828120805462ffffff1916909a1790995533895260018084529189206005018054928301815589529190972090960180546001600160a01b0319169096179095555050505050505050565b336000818152600160208181526040808420815160c081018352815481529381015492840192909252600282018054899695949392840191906104f990612085565b80601f016020809104026020016040519081016040528092919081815260200182805461052590612085565b80156105725780601f1061054757610100808354040283529160200191610572565b820191906000526020600020905b81548152906001019060200180831161055557829003601f168201915b5050505050815260200160038201805461058b90612085565b80601f01602080910402602001604051908101604052809291908181526020018280546105b790612085565b80156106045780601f106105d957610100808354040283529160200191610604565b820191906000526020600020905b8154815290600101906020018083116105e757829003601f168201915b505050918352505060048201546001600160a01b0316602080830191909152600583018054604080518285028101850182528281529401939283018282801561067657602002820191906000526020600020905b81546001600160a01b03168152600190910190602001808311610658575b5050509190925250505060008481526004602090815260408083206001600160a01b0387168452909152808220815160c0810190925280549394509192909190829082906106c390612085565b80601f01602080910402602001604051908101604052809291908181526020018280546106ef90612085565b801561073c5780601f106107115761010080835404028352916020019161073c565b820191906000526020600020905b81548152906001019060200180831161071f57829003601f168201915b5050505050815260200160018201805461075590612085565b80601f016020809104026020016040519081016040528092919081815260200182805461078190612085565b80156107ce5780601f106107a3576101008083540402835291602001916107ce565b820191906000526020600020905b8154815290600101906020018083116107b157829003601f168201915b505050918352505060028201546020820152600382015460408201526004909101546001600160a01b038082166060840152600160a01b90910460ff161515608092830152908401519192508481169116148015906108435750826001600160a01b031681608001516001600160a01b031614155b156108615760405163e3d394fd60e01b815260040160405180910390fd5b3360009081526003602052604090205462ffffff166002146108af5760008781526004602090815260408083206001600160a01b038a16845290915290206108a9868261210e565b506108d4565b600087815260046020908152604080832033845290915290206108d2868261210e565b505b50505050505050565b3360009081526003602052604090205460609062ffffff166001146109155760405163a0807af760e01b815260040160405180910390fd5b3360009081526001602090815260408083206005018054825181850281018501909352808352919290919083018282801561097957602002820191906000526020600020905b81546001600160a01b0316815260019091019060200180831161095b575b505050505090506000815167ffffffffffffffff81111561099c5761099c611b41565b6040519080825280602002602001820160405280156109ff57816020015b6040805160c081018252606080825260208201819052600092820183905281018290526080810182905260a08101919091528152602001906001900390816109ba5790505b50825190915015610c025760005b8251811015610c0057600460008681526020019081526020016000206000848381518110610a3d57610a3d6121ce565b60200260200101516001600160a01b03166001600160a01b031681526020019081526020016000206040518060c0016040529081600082018054610a8090612085565b80601f0160208091040260200160405190810160405280929190818152602001828054610aac90612085565b8015610af95780601f10610ace57610100808354040283529160200191610af9565b820191906000526020600020905b815481529060010190602001808311610adc57829003601f168201915b50505050508152602001600182018054610b1290612085565b80601f0160208091040260200160405190810160405280929190818152602001828054610b3e90612085565b8015610b8b5780601f10610b6057610100808354040283529160200191610b8b565b820191906000526020600020905b815481529060010190602001808311610b6e57829003601f168201915b505050918352505060028201546020820152600382015460408201526004909101546001600160a01b0381166060830152600160a01b900460ff1615156080909101528251839083908110610be257610be26121ce565b60200260200101819052508080610bf8906121e4565b915050610a0d565b505b9150505b919050565b3360009081526003602052604090205462ffffff16600114610c405760405163a0807af760e01b815260040160405180910390fd5b600081815260208190526040902054819060ff1615610c7257604051637b0c088f60e01b815260040160405180910390fd5b6001600160a01b038416600090815260016020908152604080832060028352818420869055858155600581018054835181860281018601909452808452919493909190830182828015610cee57602002820191906000526020600020905b81546001600160a01b03168152600190910190602001808311610cd0575b5050505050905060005b81518110156108d4576000828281518110610d1557610d156121ce565b6020908102919091018101516000898152600480845260408083206001600160a01b038516808552908652818420600281018d90558c8552928652818420908452909452929020909250819080610d6c838261220b565b50600181810190610d7f9084018261220b565b5060028281015490820155600380830154908201556004918201805491830180546001600160a01b031981166001600160a01b039485169081178355925460ff600160a01b91829004161515026001600160a81b031990911690921791909117905560008a815260209283526040808220928616825291909252812090610e068282611a73565b610e14600183016000611a73565b5060006002820181905560038201819055600490910180546001600160a81b0319169055888152602081905260409020805460ff1916905550819050610e59816121e4565b915050610cf8565b3360008181526003602052604090205484919062ffffff16600181148015610ea557506001600160a01b038281166000908152600160205260409020600401541633145b15610ec357604051630ea075bf60e21b815260040160405180910390fd5b62ffffff81166002148015610eff575060008381526004602081815260408084206001600160a01b038088168087529190935293209091015416145b15610f1d57604051630ea075bf60e21b815260040160405180910390fd5b600086815260208190526040902054869060ff1615610f4f57604051637b0c088f60e01b815260040160405180910390fd5b6040805160c0810182528881524260208083019182528284018a815260608481018b9052336080860181905260a0860182905260008e8152808552878120805460ff1916600190811790915591815293819052959092208451815592519483019490945592518291906002820190610fc7908261210e565b5060608201516003820190610fdc908261210e565b5060808201516004820180546001600160a01b0319166001600160a01b0390921691909117905560a0820151805161101e916005840191602090910190611ab0565b50503360009081526002602090815260408083209c909c556003905299909920805462ffffff19166001179055505050505050505050565b6040805160c081018252606080825260208201819052600092820183905281018290526080810182905260a08101919091526001600160a01b038316600090815260036020526040902054839062ffffff166110c55760405163aba4733960e01b815260040160405180910390fd5b60008381526004602090815260408083206001600160a01b038816845290915290819020815160c0810190925280548290829061110190612085565b80601f016020809104026020016040519081016040528092919081815260200182805461112d90612085565b801561117a5780601f1061114f5761010080835404028352916020019161117a565b820191906000526020600020905b81548152906001019060200180831161115d57829003601f168201915b5050505050815260200160018201805461119390612085565b80601f01602080910402602001604051908101604052809291908181526020018280546111bf90612085565b801561120c5780601f106111e15761010080835404028352916020019161120c565b820191906000526020600020905b8154815290600101906020018083116111ef57829003601f168201915b505050918352505060028201546020820152600382015460408201526004909101546001600160a01b0381166060830152600160a01b900460ff161515608090910152949350505050565b6040805160c0810182526000808252602080830182905260608385018190528084018190526080840183905260a084015233825260039052919091205462ffffff166001146112b95760405163a0807af760e01b815260040160405180910390fd5b60016000836001600160a01b03166001600160a01b031681526020019081526020016000206040518060c0016040529081600082015481526020016001820154815260200160028201805461130d90612085565b80601f016020809104026020016040519081016040528092919081815260200182805461133990612085565b80156113865780601f1061135b57610100808354040283529160200191611386565b820191906000526020600020905b81548152906001019060200180831161136957829003601f168201915b5050505050815260200160038201805461139f90612085565b80601f01602080910402602001604051908101604052809291908181526020018280546113cb90612085565b80156114185780601f106113ed57610100808354040283529160200191611418565b820191906000526020600020905b8154815290600101906020018083116113fb57829003601f168201915b505050918352505060048201546001600160a01b0316602080830191909152600583018054604080518285028101850182528281529401939283018282801561148a57602002820191906000526020600020905b81546001600160a01b0316815260019091019060200180831161146c575b5050505050815250509050919050565b3360009081526003602052604090205462ffffff166001146114cf5760405163a0807af760e01b815260040160405180910390fd5b3360009081526001602052604090206003016114eb828261210e565b5050565b3360009081526003602052604081205462ffffff166001146115245760405163a0807af760e01b815260040160405180910390fd5b506001600160a01b031660009081526002602052604090205490565b3360009081526003602052604090205462ffffff166001146115755760405163a0807af760e01b815260040160405180910390fd5b6001600160a01b038216600090815260036020526040902054829062ffffff166115b25760405163aba4733960e01b815260040160405180910390fd5b60006115be8484611056565b60a0015160009384526004602081815260408087206001600160a01b0398909816875296905294909320909301805460ff60a01b19169215600160a01b02929092179091555050565b336000818152600160208181526040808420815160c0810183528154815293810154928401929092526002820180548996959493928401919061164990612085565b80601f016020809104026020016040519081016040528092919081815260200182805461167590612085565b80156116c25780601f10611697576101008083540402835291602001916116c2565b820191906000526020600020905b8154815290600101906020018083116116a557829003601f168201915b505050505081526020016003820180546116db90612085565b80601f016020809104026020016040519081016040528092919081815260200182805461170790612085565b80156117545780601f1061172957610100808354040283529160200191611754565b820191906000526020600020905b81548152906001019060200180831161173757829003601f168201915b505050918352505060048201546001600160a01b031660208083019190915260058301805460408051828502810185018252828152940193928301828280156117c657602002820191906000526020600020905b81546001600160a01b031681526001909101906020018083116117a8575b5050509190925250505060008481526004602090815260408083206001600160a01b0387168452909152808220815160c08101909252805493945091929091908290829061181390612085565b80601f016020809104026020016040519081016040528092919081815260200182805461183f90612085565b801561188c5780601f106118615761010080835404028352916020019161188c565b820191906000526020600020905b81548152906001019060200180831161186f57829003601f168201915b505050505081526020016001820180546118a590612085565b80601f01602080910402602001604051908101604052809291908181526020018280546118d190612085565b801561191e5780601f106118f35761010080835404028352916020019161191e565b820191906000526020600020905b81548152906001019060200180831161190157829003601f168201915b505050918352505060028201546020820152600382015460408201526004909101546001600160a01b038082166060840152600160a01b90910460ff161515608092830152908401519192508481169116148015906119935750826001600160a01b031681608001516001600160a01b031614155b156119b15760405163e3d394fd60e01b815260040160405180910390fd5b3360009081526003602052604090205462ffffff166002146119fc5760008781526004602090815260408083206001600160a01b038a16845290915290206001016108a9868261210e565b600087815260046020908152604080832033845290915290206001016108d2868261210e565b3360009081526003602052604090205462ffffff16600114611a575760405163a0807af760e01b815260040160405180910390fd5b3360009081526001602052604090206002016114eb828261210e565b508054611a7f90612085565b6000825580601f10611a8f575050565b601f016020900490600052602060002090810190611aad9190611b15565b50565b828054828255906000526020600020908101928215611b05579160200282015b82811115611b0557825182546001600160a01b0319166001600160a01b03909116178255602090920191600190910190611ad0565b50611b11929150611b15565b5090565b5b80821115611b115760008155600101611b16565b80356001600160a01b0381168114610c0657600080fd5b634e487b7160e01b600052604160045260246000fd5b600082601f830112611b6857600080fd5b813567ffffffffffffffff80821115611b8357611b83611b41565b604051601f8301601f19908116603f01168101908282118183101715611bab57611bab611b41565b81604052838152866020858801011115611bc457600080fd5b836020870160208301376000602085830101528094505050505092915050565b60008060408385031215611bf757600080fd5b611c0083611b2a565b9150602083013567ffffffffffffffff811115611c1c57600080fd5b611c2885828601611b57565b9150509250929050565b600080600080600060a08688031215611c4a57600080fd5b85359450602086013567ffffffffffffffff80821115611c6957600080fd5b611c7589838a01611b57565b95506040880135915080821115611c8b57600080fd5b50611c9888828901611b57565b935050611ca760608701611b2a565b915060808601358015158114611cbc57600080fd5b809150509295509295909350565b600080600060608486031215611cdf57600080fd5b83359250611cef60208501611b2a565b9150604084013567ffffffffffffffff811115611d0b57600080fd5b611d1786828701611b57565b9150509250925092565b600060208284031215611d3357600080fd5b5035919050565b60005b83811015611d55578181015183820152602001611d3d565b83811115611d64576000848401525b50505050565b60008151808452611d82816020860160208601611d3a565b601f01601f19169290920160200192915050565b6000815160c08452611dab60c0850182611d6a565b905060208301518482036020860152611dc48282611d6a565b60408581015190870152606080860151908701526080808601516001600160a01b03169087015260a09485015115159490950193909352509192915050565b6000602080830181845280855180835260408601915060408160051b870101925083870160005b82811015611e5857603f19888603018452611e46858351611d96565b94509285019290850190600101611e2a565b5092979650505050505050565b600060208284031215611e7757600080fd5b611e8082611b2a565b9392505050565b600080600060608486031215611e9c57600080fd5b611ea584611b2a565b95602085013595506040909401359392505050565b600080600060608486031215611ecf57600080fd5b83359250602084013567ffffffffffffffff80821115611eee57600080fd5b611efa87838801611b57565b93506040860135915080821115611f1057600080fd5b50611d1786828701611b57565b60008060408385031215611f3057600080fd5b611f3983611b2a565b946020939093013593505050565b602081526000611e806020830184611d96565b60006020808352835181840152808401516040840152604084015160c06060850152611f8960e0850182611d6a565b90506060850151601f1980868403016080870152611fa78383611d6a565b60808801516001600160a01b0390811660a08981019190915289015188830390930160c08901528251808352928601945060009350908501915b8084101561200357845182168352938501936001939093019291850191611fe1565b5090979650505050505050565b60006020828403121561202257600080fd5b813567ffffffffffffffff81111561203957600080fd5b61204584828501611b57565b949350505050565b6bffffffffffffffffffffffff198360601b16815260008251612077816014850160208701611d3a565b919091016014019392505050565b600181811c9082168061209957607f821691505b6020821081036120b957634e487b7160e01b600052602260045260246000fd5b50919050565b601f82111561210957600081815260208120601f850160051c810160208610156120e65750805b601f850160051c820191505b81811015612105578281556001016120f2565b5050505b505050565b815167ffffffffffffffff81111561212857612128611b41565b61213c816121368454612085565b846120bf565b602080601f83116001811461217157600084156121595750858301515b600019600386901b1c1916600185901b178555612105565b600085815260208120601f198616915b828110156121a057888601518255948401946001909101908401612181565b50858210156121be5787850151600019600388901b60f8161c191681555b5050505050600190811b01905550565b634e487b7160e01b600052603260045260246000fd5b60006001820161220457634e487b7160e01b600052601160045260246000fd5b5060010190565b818103612216575050565b6122208254612085565b67ffffffffffffffff81111561223857612238611b41565b612246816121368454612085565b6000601f82116001811461227a57600083156122625750848201545b600019600385901b1c1916600184901b1784556122df565b600085815260209020601f19841690600086815260209020845b838110156122b45782860154825560019586019590910190602001612294565b50858310156122d25781850154600019600388901b60f8161c191681555b50505060018360011b0184555b505050505056fea26469706673582212203a9eea290896b198cc7b244c793246c42449c2a209a488237b9438da7b52b44564736f6c634300080f0033",
  "linkReferences": {},
  "deployedLinkReferences": {}
}